:100000000C942A000C9447000C9447000C94470071
:100010000C9447000C9447000C9447000C94470044
:100020000C9447000C9447000C9447000C94470034
:100030000C9447000C9447000C9447000C94470024
:100040000C9447000C9447000C9447000C94470014
:100050000C94470011241FBECFE5D8E0DEBFCDBF12
:1000600010E0A0E6B0E0E8EEF7E002C005900D92E7
:10007000A836B107D9F720E0A8E6B0E001C01D928C
:10008000AD36B207E1F70E94C1010C94F2030C9463
:1000900000000E94B7030E946B010E945F000E9453
:1000A000E90008950E9472010E94DD03882321F077
:1000B0000E94AB000E9436010E94BA03089560E0DE
:1000C00080E00E94040360E081E00E94040360E09D
:1000D00082E00E9404030895813071F018F08230AC
:1000E000A9F0089580E00E94AF0381E00E94B3036D
:1000F00082E00E94B303089580E00E94B30381E090
:100100000E94830382E00E94B303089580E00E946E
:10011000B30381E00E94B30382E00E94AF0308951D
:1001200090916100913049F018F0923079F0089583
:10013000E0E6F0E090838283089590916900913029
:1001400011F410926000809362000895E0E6F0E000
:1001500090838283089580916200813099F018F035
:10016000823029F108951092610080E00E946C00B5
:100170000E94EC03853049F581E00E9490001092C6
:100180006900089581E0809361000E946C000E94E4
:10019000EC038530D1F480916000811102C082E0CF
:1001A00001C080E00E94900010926900089582E0F2
:1001B000809361000E946C000E94EC03853029F45A
:1001C00081E00E9490001092690008958091610082
:1001D000089560E083E00E94040360E084E00E94F0
:1001E000040360E085E00E9404030895813071F00B
:1001F00018F08230A9F0089583E00E94AF0384E0F4
:100200000E94B30385E00E94B303089583E00E9437
:10021000B30384E00E94830385E00E94B303089542
:1002200083E00E94B30384E00E94B30385E00E9450
:10023000AF03089590916400913049F018F0923026
:1002400081F00895E3E6F0E0908382830895909131
:100250006900913019F492E09093630080936500F7
:100260000895E3E6F0E0908382830895809165002D
:10027000813089F018F0823009F1089510926400FD
:1002800080E00E94F6000E94EC03853019F581E0C1
:100290000E941A01089581E0809364000E94F60094
:1002A0000E94EC038530B1F480916300811102C09B
:1002B00082E001C080E00E941A01089582E08093EC
:1002C00064000E94F6000E94EC03853019F481E07E
:1002D0000E941A01089580E00E94F0020895809122
:1002E000680008950E946F0181112AC00E94F702E0
:1002F000813069F580916900811129C081E0809386
:100300006900809368000E94E600813069F018F06F
:10031000823099F008950E94EF0381E00E949000DE
:1003200081E00E941A0108950E94EF0381E00E947B
:10033000900081E00E941A0108950E94EF03089541
:1003400080E00E94F702811102C0109268000895B7
:1003500041E00E94C601811181E008950E943502AA
:10036000811181E008950E94B702811181E0089512
:1003700040E00E94C601811181E008950E9484023C
:1003800008950E9449000E945200FDCF423008F0BB
:1003900060C0683008F05FC0813009F118F0823029
:1003A000D9F15BC0413061F42AB381E090E002C032
:1003B000880F991F6A95E2F7822B8ABB80E0089527
:1003C00041114DC02AB381E090E002C0880F991F0F
:1003D0006A95E2F7809582238ABB80E008954130D8
:1003E00061F427B381E090E002C0880F991F6A95FD
:1003F000E2F7822B87BB80E00895411132C027B31A
:1004000081E090E002C0880F991F6A95E2F780951D
:10041000822387BB80E00895413061F421B381E0FD
:1004200090E002C0880F991F6A95E2F7822B81BB8A
:1004300080E00895411117C021B381E090E002C02F
:10044000880F991F6A95E2F78095822381BB80E02F
:10045000089583E0089582E0089581E0089580E0A2
:10046000089580E0089580E00895423008F042C089
:10047000683008F041C0882319F08130F1F03EC0A7
:10048000413061F42BB381E090E002C0880F991FE6
:100490006A95E2F7822B8BBB80E00895411130C052
:1004A0002BB381E090E002C0880F991F6A95E2F7B4
:1004B000809582238BBB80E00895413061F428B39E
:1004C00081E090E002C0880F991F6A95E2F7822BC5
:1004D00088BB80E00895411115C028B381E090E009
:1004E00002C0880F991F6A95E2F78095822388BB26
:1004F00080E0089584E0089582E0089581E0089501
:1005000080E0089580E00895683038F5813079F012
:1005100018F08230B9F023C089B390E002C09595FD
:1005200087956A95E2F780FF1CC081E0089586B345
:1005300090E002C0959587956A95E2F780FF13C019
:1005400081E0089580B390E002C0959587956A9503
:10055000E2F780FF0AC081E0089582E0089582E01A
:10056000089580E0089580E0089580E0089568305F
:10057000E8F4882319F0813069F01AC02BB381E0C8
:1005800090E002C0880F991F6A95E2F782278BBB23
:1005900080E0089528B381E090E002C0880F991FA1
:1005A0006A95E2F7822788BB80E0089582E008958B
:1005B00081E0089513BE089581E0809366008DE385
:1005C00082BF83B7846083BF08B600FEFDCF88B7C3
:1005D000816088BF1092660008958091660008953A
:1005E000811104C062E082E00E94B8010895811187
:1005F00007C062E082E00E94BE01811103C008953D
:1006000080E0089581E00895CF93C62F823001F1F4
:1006100028F4882349F0813089F041C0843061F1A9
:1006200008F1853099F13BC060E080E00E94A801AC
:100630004C2F60E080E00E94AE0131C061E080E0BC
:100640000E94A8014C2F61E080E00E94AE0127C00B
:1006500062E080E00E94A8014C2F62E080E00E94EE
:10066000AE011DC060E081E00E94A8014C2F60E057
:1006700081E00E94AE0113C061E081E00E94A80108
:100680004C2F61E081E00E94AE0109C062E081E090
:100690000E94A8014C2F62E081E00E94AE01CF9140
:1006A00008958230C1F028F4882349F0813069F040
:1006B00008958430E1F0A8F08530F9F00895462FD0
:1006C00060E080E00E94AE010895462F61E080E086
:1006D0000E94AE010895462F62E080E00E94AE01C4
:1006E0000895462F60E081E00E94AE010895462FF4
:1006F00061E081E00E94AE010895462F62E081E052
:100700000E94AE0108958230B1F028F4882349F0A8
:10071000813061F008958430C1F090F08530D1F0DF
:10072000089560E080E00E94B301089561E080E0F8
:100730000E94B301089562E080E00E94B301089531
:1007400060E081E00E94B301089561E081E00E94D1
:10075000B301089562E081E00E94B301089561E071
:100760000E945103089560E00E94510308950E9481
:10077000DA0208950E94DC020E94ED02811109C094
:1007800080916B0090916C00C29690936C00809366
:100790006B0080916B0090916C00883E934029F42F
:1007A00080916A008F5F80936A0080916A00863032
:1007B00018F081E080936A00089580916B00909119
:1007C0006C00883E934031F410926C0010926B00E4
:1007D00081E0089580E0089580916A000895109264
:0807E0006A000895F894FFCFB0
:0807E800010000010202010002
:00000001FF
